{
  "contractName": "Election",
  "abi": [
    {
      "inputs": [],
      "payable": false,
      "stateMutability": "nonpayable",
      "type": "constructor"
    },
    {
      "anonymous": false,
      "inputs": [
        {
          "indexed": true,
          "internalType": "int256",
          "name": "_candidateId",
          "type": "int256"
        }
      ],
      "name": "votedEvent",
      "type": "event"
    },
    {
      "constant": true,
      "inputs": [
        {
          "internalType": "int256",
          "name": "",
          "type": "int256"
        }
      ],
      "name": "candidates",
      "outputs": [
        {
          "internalType": "int256",
          "name": "id",
          "type": "int256"
        },
        {
          "internalType": "string",
          "name": "name",
          "type": "string"
        },
        {
          "internalType": "int256",
          "name": "voteCount",
          "type": "int256"
        }
      ],
      "payable": false,
      "stateMutability": "view",
      "type": "function"
    },
    {
      "constant": true,
      "inputs": [],
      "name": "candidatesCount",
      "outputs": [
        {
          "internalType": "int256",
          "name": "",
          "type": "int256"
        }
      ],
      "payable": false,
      "stateMutability": "view",
      "type": "function"
    },
    {
      "constant": true,
      "inputs": [],
      "name": "election_name",
      "outputs": [
        {
          "internalType": "string",
          "name": "",
          "type": "string"
        }
      ],
      "payable": false,
      "stateMutability": "view",
      "type": "function"
    },
    {
      "constant": true,
      "inputs": [
        {
          "internalType": "address",
          "name": "",
          "type": "address"
        }
      ],
      "name": "hasVoted",
      "outputs": [
        {
          "internalType": "bool",
          "name": "",
          "type": "bool"
        }
      ],
      "payable": false,
      "stateMutability": "view",
      "type": "function"
    },
    {
      "constant": false,
      "inputs": [
        {
          "internalType": "string",
          "name": "_name",
          "type": "string"
        }
      ],
      "name": "addCandidate",
      "outputs": [],
      "payable": false,
      "stateMutability": "nonpayable",
      "type": "function"
    },
    {
      "constant": false,
      "inputs": [
        {
          "internalType": "int256",
          "name": "_candidateId",
          "type": "int256"
        }
      ],
      "name": "vote",
      "outputs": [],
      "payable": false,
      "stateMutability": "nonpayable",
      "type": "function"
    }
  ],
  "bytecode": "0x60806040526040518060600160405280602c81526020016109c7602c913960009080519060200190610032929190610195565b5034801561003f57600080fd5b50600060018190555061008c6040518060400160405280602081526020017f4564736f6e204172616e74657320646f204e617363696d656e746f2050656c6581525061011960201b60201c565b6100d06040518060400160405280601681526020017f446965676f2041726d616e646f204d617261646f6e610000000000000000000081525061011960201b60201c565b6101146040518060400160405280601381526020017f4c696f6e656c20416e64726573204d657373690000000000000000000000000081525061011960201b60201c565b6102ba565b600160008154809291906001019190505550604051806060016040528060015481526020018281526020016000815250600360006001548152602001908152602001600020600082015181600001556020820151816001019080519060200190610184929190610215565b506040820151816002015590505050565b828054600181600116156101000203166002900490600052602060002090601f016020900481019282601f106101d657805160ff1916838001178555610204565b82800160010185558215610204579182015b828111156102035782518255916020019190600101906101e8565b5b5090506102119190610295565b5090565b828054600181600116156101000203166002900490600052602060002090601f016020900481019282601f1061025657805160ff1916838001178555610284565b82800160010185558215610284579182015b82811115610283578251825591602001919060010190610268565b5b5090506102919190610295565b5090565b6102b791905b808211156102b357600081600090555060010161029b565b5090565b90565b6106fe806102c96000396000f3fe608060405234801561001057600080fd5b50600436106100625760003560e01c806309eef43e146100675780632d35a8a2146100c35780633891c320146100e1578063462e91ec1461010f578063ed35a5da146101ca578063f5a11c231461024d575b600080fd5b6100a96004803603602081101561007d57600080fd5b81019080803573ffffffffffffffffffffffffffffffffffffffff169060200190929190505050610302565b604051808215151515815260200191505060405180910390f35b6100cb610322565b6040518082815260200191505060405180910390f35b61010d600480360360208110156100f757600080fd5b8101908080359060200190929190505050610328565b005b6101c86004803603602081101561012557600080fd5b810190808035906020019064010000000081111561014257600080fd5b82018360208201111561015457600080fd5b8035906020019184600183028401116401000000008311171561017657600080fd5b91908080601f016020809104026020016040519081016040528093929190818152602001838380828437600081840152601f19601f820116905080830192505050505050509192919290505050610448565b005b6101d26104c4565b6040518080602001828103825283818151815260200191508051906020019080838360005b838110156102125780820151818401526020810190506101f7565b50505050905090810190601f16801561023f5780820380516001836020036101000a031916815260200191505b509250505060405180910390f35b6102796004803603602081101561026357600080fd5b8101908080359060200190929190505050610562565b6040518084815260200180602001838152602001828103825284818151815260200191508051906020019080838360005b838110156102c55780820151818401526020810190506102aa565b50505050905090810190601f1680156102f25780820380516001836020036101000a031916815260200191505b5094505050505060405180910390f35b60026020528060005260406000206000915054906101000a900460ff1681565b60015481565b600260003373ffffffffffffffffffffffffffffffffffffffff1673ffffffffffffffffffffffffffffffffffffffff16815260200190815260200160002060009054906101000a900460ff161561037f57600080fd5b60008113801561039157506001548113155b61039a57600080fd5b6001600260003373ffffffffffffffffffffffffffffffffffffffff1673ffffffffffffffffffffffffffffffffffffffff16815260200190815260200160002060006101000a81548160ff0219169083151502179055506003600082815260200190815260200160002060020160008154809291906001019190505550807f820f2e3a90ab34676b81e1844a5cef64638fb7db3fa57a0b2002edf2d0f6f2d760405160405180910390a250565b6001600081548092919060010191905055506040518060600160405280600154815260200182815260200160008152506003600060015481526020019081526020016000206000820151816000015560208201518160010190805190602001906104b3929190610624565b506040820151816002015590505050565b60008054600181600116156101000203166002900480601f01602080910402602001604051908101604052809291908181526020018280546001816001161561010002031660029004801561055a5780601f1061052f5761010080835404028352916020019161055a565b820191906000526020600020905b81548152906001019060200180831161053d57829003601f168201915b505050505081565b6003602052806000526040600020600091509050806000015490806001018054600181600116156101000203166002900480601f0160208091040260200160405190810160405280929190818152602001828054600181600116156101000203166002900480156106145780601f106105e957610100808354040283529160200191610614565b820191906000526020600020905b8154815290600101906020018083116105f757829003601f168201915b5050505050908060020154905083565b828054600181600116156101000203166002900490600052602060002090601f016020900481019282601f1061066557805160ff1916838001178555610693565b82800160010185558215610693579182015b82811115610692578251825591602001919060010190610677565b5b5090506106a091906106a4565b5090565b6106c691905b808211156106c25760008160009055506001016106aa565b5090565b9056fea265627a7a72315820835acbbf5006a272e54b2a0c8e6e3ed15779998d33a7d87287028780e052e67c64736f6c6343000510003257686f20697320746865206265737420666f6f7462616c6c20706c61796572206f6620616c6c2074696d653f",
  "source": "//pragma solidity >=0.4.22 <0.8.0;\r\npragma solidity >=0.4.22 <0.9.0;\r\n\r\n\r\n\r\ncontract Election {\r\n    \r\n    struct Candidate { //Candidate structure\r\n        int id;\r\n        string name;\r\n        int voteCount;\r\n    }\r\n    \r\n    string public election_name= \"Who is the best football player of all time?\";\r\n    \r\n    // Store Candidates Count\r\n    int public candidatesCount;\r\n\r\n    // Store accounts that have voted\r\n    mapping(address => bool) public hasVoted;\r\n    // Store Candidates\r\n    // Fetch Candidate\r\n    mapping(int => Candidate) public candidates;\r\n    \r\n\r\n    // voted event\r\n    event votedEvent (\r\n        int indexed _candidateId\r\n    );\r\n\r\n    constructor () public {\r\n        \r\n        candidatesCount=0;\r\n        addCandidate(\"Edson Arantes do Nascimento Pele\");\r\n        addCandidate(\"Diego Armando Maradona\");\r\n        addCandidate(\"Lionel Andres Messi\");\r\n    }\r\n\r\n\r\n    function addCandidate (string memory _name) public {\r\n        candidatesCount ++;\r\n        candidates[candidatesCount] = Candidate(candidatesCount, _name, 0);\r\n    }\r\n    \r\n    \r\n\r\n    \r\n    function vote (int _candidateId) public {\r\n        // if they haven't voted before, proceed\r\n        require(!hasVoted[msg.sender]);    // [msg.sender is sender of the transc.\r\n\r\n        // if a valid candidate, proceed\r\n        require(_candidateId > 0 && _candidateId <= candidatesCount);\r\n\r\n        // mark that voter has voted\r\n        hasVoted[msg.sender] = true;\r\n\r\n        // update candidate vote Count\r\n        candidates[_candidateId].voteCount ++;\r\n\r\n        // trigger voted event\r\n        emit votedEvent(_candidateId);\r\n    }\r\n    \r\n    \r\n   \r\n   \r\n    //   function returnCandidates() public view returns(mapping) {\r\n          \r\n    //      return candidates;\r\n    //   }\r\n    \r\n    \r\n}",
  "sourcePath": "C:\\Users\\Tathagata\\Desktop\\blockchain-voting\\contracts\\Election.sol",
  "compiler": {
    "name": "solc",
    "version": "0.5.16+commit.9c3226ce.Emscripten.clang"
  },
  "schemaVersion": "3.4.3",
  "updatedAt": "2021-12-03T20:08:39.776Z",
  "networkType": "ethereum",
  "devdoc": {
    "methods": {}
  },
  "userdoc": {
    "methods": {}
  }
}